:100E9B002535642E20005B4449525D0A0045727271
:100EAB006F7220686173206F6363757265640044B1
:100EBB00656275673A3A204F666673657420302019
:100ECB006F6620536563746F722030206973202521
:100EDB00780D0A00466F756E64204D42522E2E2EF1
:100EEB000D0A0044656275673A3A204F6666736572
:100EFB00742030206F662052656C617469766520B2
:100F0B00536563746F727320697320256C780D0AB7
:100F1B000044656275673A3A2074656D70382069D4
:100F2B00732025780D0A004572726F722042504271
:100F3B00206E6F7420466F756E64210D0A0042504F
:100F4B004220466F756E64210D0A004279746573F9
:100F5B005065725365633A3A2025780D0A00536544
:100F6B0063506572436C75733A3A202562780D0AAB
:100F7B000052737664536563746F72436F756E744E
:100F8B003A3A2025780D0A004E756D464154533A76
:100F9B003A202562780D0A00526F6F74456E747299
:100FAB0079436E743A3A2025780D0A00546F7461B8
:100FBB006C536563746F727331363A3A2025780D32
:100FCB000A00464154737A31363A3A2025780D0A95
:100FDB0000546F74616C536563746F727333323A80
:100FEB003A20256C780D0A00464154737A33323A15
:100FFB003A20256C780D0A00526F6F74436C757331
:10100B007465723A3A20256C780D0A00537461723C
:10101B00746F664641543A3A20256C780D0A00529B
:10102B006F6F74446972536563733A3A20256C7819
:10103B000D0A004669727374446174615365633AB7
:10104B003A20256C780D0A004669727374526F6FE3
:10105B00744469725365633A3A20256C780D0A0023
:10106B004641547479706520446574656374656496
:10107B003A2025780D0A00312E20436F6E74696E6D
:10108B00756520746F206E65787420636C7573744E
:10109B0065720D0A322E204261636B20746F206DD6
:1010AB0061696E206D656E750D0A496E70757420E1
:1010BB00456E74727920233A2000436C7573746506
:1010CB00722023203D20256C78202C536563746F90
:1010DB00722023203D20256C780D0A005175697410
:1010EB0074696E672E2E2E0D0A00436C7573746532
:1010FB0072206E756D6265723A20256C78200D0A30
:01110B0000E3
:07269A007B007A00790822A1
:0F264C00E54E240BFFE4354DFEAB54AA55A956BD
:08265B008F828E83120BAEFF8B
:012663002254
:0A236B008E5E8F5F8B608A618962CD
:10237500E4F566F565F564F563F567AB60E562253B
:102385005FF9E561355EFAC374019567FFE4940072
:10239500FEE92FF9EA3EFA120B95FBAF66AE65AD85
:1023A50064AC637808120DBB8F668E658D648C6393
:1023B500AF03E4E5664FF566E565F565E564F56447
:0F23C500E563F5630567E567B402B0AE65AF6623
:0123D40022E6
:0A228F008E5E8F5F8B608A618962AA
:10229900E4F566F565F564F563F567AB60E5622518
:1022A9005FF9E561355EFAC374039567FFE494004D
:1022B900FEE92FF9EA3EFA120B95FBAF66AE65AD62
:1022C90064AC637808120DBB8F668E658D648C6370
:1022D900AF03E4E5664FF566E565F565E564F56424
:1022E900E563F5630567E567B404B0AF66AE65AD50
:0322F90064AC636F
:0122FC0022BF
:081771008F3C8E3B8D3A8C3950
:10177900755001853D51853E52E4F549F54AF547D5
:10178900F5487809E6B4020F781A120DFE8F468ED5
:10179900458D448C43800D7808E6FFE48F46F54576
:1017A900F544F543853C42853B41853A4085393FBF
:1017B900AF42AE41AD40AC3F780CE6F56208E6F5C4
:1017C900638550648551658552661224348F4FE5CF
:1017D9004F600302194DAB50AA51A952AF48AE4709
:1017E90012265B8F4BE54B64E570030218BFE54B8E
:1017F90070030218BFE548240BFFE43547FEAB50E0
:10180900AA51A95212265B8F4DE54D540E60030271
:1018190018BF054AE54A700205497BFF7A0E799B94
:1018290085496EF56F12089BE4F54C7E00E5482565
:101839004CFFEE3547FEAB50AA51A95212265B8FD9
:101849004E1225DF054CE54CC3940840DEE54D30CA
:10185900E430754C087E00E548254CFFEE3547FE1F
:10186900AB50AA51A95212265B8F4E1225DF054CA7
:10187900E54CC3940B40DE7BFF7A0E79A112089BDD
:1018890080347F2E1225DF754C087E00E548254CF3
:10189900FFEE3547FEAB50AA51A95212265B8F4E77
:1018A9001225DF054CE54CC3940B40DE7F0D122554
:1018B900DF7F0A1225DF74202548F548E43547F50E
:1018C90047D3E54894FEE5479401406FE54224017A
:1018D900F542E43541F541E43540F540E4353FF55D
:1018E9003FC3E542953CFFE541953BFEE540953A0E
:1018F900FDE53F9539FCAB46AA45A944A843D31257
:101909000D974031AF42AE41AD40AC3F780CE6F5A2
:101919006208E6F56385506485516585526612242F
:10192900348F4FE54F6007E4F549F54AF54BE4F587
:1019390047F5488006434980E4F54BE54B600302CF
:1019490017DF800E7BFF7A0E79A812089BE4F54910
:06195900F54AAE49AF4A59
:01195F002265
:08110C008F3C8E3B8D3A8C39BB
:10111400755401853F55854056E4F54FF550F54D1E
:10112400F54EF54CF54BF54AF5497809E6B4020F4E
:10113400781A120DFE8F488E478D468C45800D78A7
:1011440008E6FFE48F48F547F546F545853C4485B8
:101154003B43853A42853941AF44AE43AD42AC414D
:10116400780CE6F56208E6F5638554648555658573
:1011740056661224348F53E5536003021310AB54A4
:10118400AA55A956AF4EAE4D12265B8F51E5516458
:10119400E57003021280E551700302128012264C9E
:1011A4008F52E552540E60030212800550E55070D0
:1011B40002054F653E7004E54F653D6003021280F1
:1011C4007809E664047050E54E2415122650E48F25
:1011D4004CF54BF54AF549AE4BAD4AAC497808128B
:1011E4000DBB8F4C8E4B8D4A8C49E54E2414122630
:1011F40050E4E54C4FF54CE54BF54BE54AF54AE533
:1012040049F549AF4CAE4BAD4AFC7808120DBB8F83
:101214004C8E4B8D4A8C49E54E241B122650E4E536
:101224004C4FF54CE54BF54BE54AF54AE549F54994
:10123400AF4CAE4BAD4AFC7808120DBB8F4C8E4BB5
:101244008D4A8C49E54E241A122650E4E54C4FF59C
:101254004CE54BF54BE54AF54AE549F54912264C70
:101264008F52E55230E412E54CF54CE54BF54BE575
:101274004AF54AE5494410F549E4F5517420254EF0
:10128400F54EE4354DF54DD3E54E94FEE54D940110
:101294004071E5442401F544E43543F543E4354223
:1012A400F542E43541F541C3E544953CFFE54395FA
:1012B4003BFEE542953AFDE5419539FCAB48AA472A
:1012C400A946A845D3120D974036AF44AE43AD426C
:1012D400AC41780CE6F56208E6F5638554648555FF
:1012E400658556661224348F53E553600CE4F54C3F
:1012F400F54BF54A754980F551E4F54DF54E8003FB
:10130400E4F551E5516003021182800AE4F54CF5DD
:101314004BF54A754980E4FFFEFDFCAB4CAA4BA992
:101324004AA849C3120D977009F54CF54BF54A7557
:0A1334004980AF4CAE4BAD4AAC4906
:01133E00228C
:040003008E398F3A69
:10000700756202756300AA06A9077564018A658986
:10001700667F007E007D007C001224348F3CAA3965
:10002700A93A7B01E4FFFE12265B8F3B7BFF7A0E2A
:1000370079BA853B6E12089BE53B64EB70030200BF
:10004700D6E53B64E970030200D67BFF7A0E79DFC1
:1000570012089BAA39A93A7B017FC67E0112228F1B
:100067008F598E588D578C567BFF7A0E79EE8F718C
:100077008E708D6F8C6E12089BAF59AE58AD57AC12
:1000870056756202756300756401853965853A6640
:100097001224348F3CAA39A93A7B01E4FFFE1226C9
:1000A7005B8F3B7BFF7A0F791C853B6E12089BE5C4
:1000B7003B64EB6011E53B64E9600B7BFF7A0F79EA
:1000C7003212089B80097BFF7A0F794912089BAA95
:1000D70039A93A7B017D007C021223D5AA39A93AB6
:1000E7007B017F0B7E0012236B780CEEF608EFF690
:1000F7007BFF7A0F79568E6EF56F12089BAA39A986
:100107003A7B017F0D7E0012265B7808EFF67BFFB6
:100117007A0F7969F56E12089BAA39A93A7B017F94
:100127000E7E0012236B8E3D8F3E7BFF7A0F797C0C
:10013700853D6E853E6F12089BAA39A93A7B017FE0
:10014700107E0012265B8F3F7BFF7A0F7993853FE6
:100157006E12089BAA39A93A7B017F117E001223F0
:100167006B8E408F417BFF7A0F79A385406E854167
:100177006F12089BAA39A93A7B017F137E001223CD
:100187006B8E428F437BFF7A0F79B785426E85432B
:100197006F12089BAA39A93A7B017F167E001223AA
:1001A7006B8E448F457BFF7A0F79CD85446E8545ED
:1001B7006F12089BAA39A93A7B017F207E00122281
:1001C7008F8F498E488D478C467BFF7A0F79DC8F5E
:1001D700718E708D6F8C6E12089BAA39A93A7B01BC
:1001E7007F247E0012228F8F4D8E4C8D4B8C4A7B45
:1001F700FF7A0F79F38F718E708D6F8C6E12089B5B
:10020700AA39A93A7B017F2C7E0012228F8F558E47
:10021700548D538C527BFF7A1079038F718E708DBA
:100227006F8C6E12089BE4E53E2559FFE53D355876
:10023700FEE43557FDE43556FC7816120E177BFFA2
:100247007A1079177816120DFE8F718E708D6F8C5C
:100257006E12089BE541AE407805C333CE33CED846
:10026700F9FF780CE6FC08E6FD24FFFBEC34FFCB36
:100277002FFFEB3EFE120C0FE4FCFD781A120E174F
:100287007BFF7A10792A781A120DFE8F718E708D86
:100297006F8C6E12089BAF3FE4FCFDFEAB4DAA4C82
:1002A700A94BA84A120C64A804A905AA06AB07E43F
:1002B700FCFDEB253EFFEA353DFEED39FDEC38FC54
:1002C700781A120E0AEF2BFFEE3AFEED39FDEC38E5
:1002D700FCEF2559FFEE3558FEED3557FDEC355649
:1002E700FC7812120E177BFF7A10793E7812120DE6
:1002F700FE8F718E708D6F8C6E12089BE55524FEF4
:10030700FFE55434FFFEE55334FFFDE55234FFFCAF
:10031700C004A905AA06AB077808E6FFE4FCFDFEC2
:10032700D000120C647812120E0AEF2BFFEE3AFE81
:10033700ED39FDEC38FC780E120E177BFF7A107939
:1003470053780E120DFE8F718E708D6F8C6E1208A2
:100357009B780B7602E5454544600DE4854551855C
:100367004450F54FF54E800C854D51854C50854BCB
:100377004F854A4EE5434542600FAE42AF43E4FC2A
:10038700FD900400120E23800EAF49AE48AD47AC76
:1003970046900400120E23AF3FE4FCFDFEAB51AACA
:1003A70050A94FA84E120C64781A120E0AEF2BFBB5
:1003B700EE3AFAED39F9EC38F8E4FCFDEB253EFBB3
:1003C700EA353DFAED39F9EC38F8900400E0FCA382
:1003D700E0FDA3E0FEA3E0C39BFFEE9AFEED99FDCF
:1003E700EC98FCA3120E237808E6FFE4FCFDFEF868
:1003F700F9FAAB07900404E0FCA3E0FDA3E0FEA339
:10040700E0FF120CEF8F5D8E5C8D5B8C5AE47FF5FD
:100417007EFFFDFCAB5DAA5CA95BA85AC3120D97D2
:10042700500978097602753CF18004780976047BD7
:0F043700FF7A10796B7809E6F56E12089BAF3CDF
:010446002293
:08221E008F508E4F8D4E8C4D48
:10222600E4FFFEFDFCAB50AA4FA94EA84DC3120D0C
:1022360097700F780E120DFE8F548E538D528C515F
:10224600803EE55024FEFFE54F34FFFEE54E34FFA9
:10225600FDE54D34FFFCC004A905AA06AB077808C6
:10226600E6FFE4FCFDFED000120C647812120E0AA2
:10227600EF2BF554EE3AF553ED39F552EC38F551AE
:08228600AF54AE53AD52AC5150
:01228E00222D
:081FEA008F508E4F8D4E8C4D7F
:101FF200E47F04FEFDFCAB50AA4FA94EA84D120C83
:1020020064C004C005C006C007780CE6FE08E6FFFF
:10201200E4FCFDF8F9AA06AB07D007D006D005D03C
:1020220004120CEF7816120E0AEF2BFFEE3AFEEDB9
:1020320039FDEC38FC780CE6F56208E6F563756468
:1020420001855165855266122434E47F04FEFDFC4D
:10205200AB50AA4FA94EA84D120C64C004C005C0D3
:1020620006C007780CE6FE08E6FFE4FCFDF8F9AAD4
:1020720006AB07D007D006D005D004120CEFAE0293
:10208200AF03AA51A9527B0112228FEFEEEDEC545D
:022092000FFC41
:012094002229
:081960008F3C8E3B8D3A8C395F
:10196800E4F53FF54C7BFF7A10798212089B121D33
:10197800958F4B8E4A8D498C48E47F01FEFDFCAB68
:101988004BAA4AA949A848C3120D976003021A60D6
:10199800AF3CAE3BAD3AAC3912221E8F478E468D16
:1019A800458C448F438E428D418C407808E6FFE495
:1019B800EF2547FFE43546FEE43545FDE43544FCB4
:1019C800AB43AA42A941A840C3120D97606FAF4329
:1019D800AE42AD41AC40780CE6F56208E6F56375B9
:1019E8006401853D65853E661224348F3F7BFF7A0E
:1019F8001079C5853C71853B70853A6F85396E8550
:101A0800437585427485417385407212089BE54C85
:101A18007010AA3DA93E7B01780CE6FC08E6FD1291
:101A280023D5E5432401F543E43542F542E4354145
:101A3800F541E43540F540754C010219B3AF3CAEB1
:101A48003BAD3AAC39853D51853E52121FEA8F3C79
:101A58008E3B8D3A8C3980097BFF7A1079E7120822
:101A68009BE47F01FEFDFCAB4BAA4AA949A848C3E9
:101A7800120D97701874FFFFFEFD7C0FAB3CAA3B5C
:101A8800A93AA839C3120D97600302196D7BFF7A32
:101A98001079F5853C71853B70853A6F85396E12F2
:041AA800089BAF3FA9
:011AAC002217
:1025B5008D3FEF70077F401226A680057F401226CB
:1025C500BD7F801226BDAF3F1226C97F801226A689
:0A25D5007FFF1226C97F400226BDD9
:102513007D38E4FF1225B57F017E001226067D4833
:10252300E4FF1225B57F017E001226067D01E4FF3C
:102533001225B57F027E001226067D0CE4FF1225CC
:08254300B57F017E00022606AF
:082121008D398B3A8A3B893CA1
:10212900EFF46010EF4480FDE4FF1225B57F017ED6
:1021390000122606E5397038F53DAB3AAA3BA93CB1
:10214900853D82F583120BAEF53EE53E604EFD7F7F
:10215900011225B57F017E00122606053DAB3AAA7C
:102169003BA93C853D82758300120BAEF53E80DAB2
:10217900E4F53DE53DC395395022AB3AAA3BA93C6C
:10218900853D82758300120BAEF53EFD7F01122558
:0C219900B57F017E00122606053D80D7B0
:0121A5002217
:0526A100EFF452A0223D
:0426B500EF42A0222E
:101D9500E4F54D744F254DF8E4F6054DE54DB40BCE
:101DA500F274FFF55DF55CF55BF55AE4F54D122629
:101DB500928F4EE54EC394304017E54ED39439507B
:101DC50010744F254DF8A64E054DAF4E1225DF80F8
:101DD50050E54E64086005E54EB47F1A154D744F05
:101DE500254DF8E4F67F0812262C7F2012262C7F3D
:101DF5000812262C802BE54E640D6005E54EB40ACD
:101E05001D7B007A00794F121CB78F5D8E5C8D5B50
:101E15008C5A7F0D12262C7F0A12262C8003E4F59E
:101E25004EE54DB40A1B7B007A00794F121CB78F23
:101E35005D8E5C8D5B8C5A7F0D12262C7F0A1226D7
:101E45002C74FFFFFEFDFCAB5DAA5CA95BA85AC321
:101E5500120D977003021DB3AF5DAE5CAD5BAC5A5E
:011E6500225A
:0326C9008F8022DD
:0526A600EFF452B02228
:0426B900EF42A0222A
:0426BD00EF42B02216
:102489002570200025322E32625820004164647282
:102499002E202020302020312020322020332020DF
:1024A900342020352020362020372020382020399C
:1024B9002020412020422020432020442020452064
:0524C90020460A0D0091
:1021A6008B668A6789688B6E8A6F89707BFF7A2453
:1021B600798912089BE4F569AB66AA67A9688569FF
:1021C60082758300120BAEF56A7BFF7A24798DF552
:1021D6006E12089B0569E569C3941040DBE4F56956
:1021E600AB66AA67A968856982758300120BAEF58E
:1021F6006AC394204007E56AD3947F4003756A2E2C
:10220600AF6A12262C0569E569C3941040D27F0D8A
:0822160012262C7F0A02262C7F
:0A23D5008B5E8A5F89608C618D6267
:1023DF008B638A648965AE02AF0153070F7E00C31A
:1023EF00E99FF9EA9E8B63F56489657BFF7A24790F
:1023FF009512089BAB63AA64A9651221A6741025D8
:10240F0065F565E43564F564AB5EE5602562F9E575
:10241F005F3561FAEB8A838982C3E5659582E5644E
:04242F00958340D081
:012433002286
:082434008F618E608D5F8C5EEC
:10243C00E4F5681226AB8F677F101226B0AF61AE41
:10244C0060AD5FAC5EA967A801120DBB8F6D8E6C81
:10245C008D6B8C6A7F11121AB88F68E568700FABA0
:10246C0064AA65A966AF63AE62121BB88F687F1051
:0C247C001226C1E56860037568F0AF68C7
:012488002231
:101E66005344204361726420546573742050726F2A
:101E76006772616D0A0D0A0A00496E707574204515
:101E86006E74727920233A2000496E76616C69641B
:101E96002073656C656374696F6E2E20506C656186
:101EA60073652073656C65637420612076616C6967
:101EB6006420656E7472792E00456E74727920699D
:101EC600732061206469726563746F72792E2E2E99
:101ED6004F70656E696E67206E6F772E2E2E0D0A17
:101EE60000456E74727920697320612066696C659D
:101EF6002E2E2E4F70656E696E67206E6F772E2EB2
:101F06002E0D0A005344204361726420496E6974A1
:101F16002E2E2E005374642E204361706163697403
:101F26007900486967682043617061636974790064
:10133F0012269A8B368A378938758E0C758F017FF6
:10134F000F1226B97FE01226B57F101226A1E4F501
:10135F0026F527AE26AF27E4FCFD7B607AEAF9F885
:10136F00C3120D81400A0527E52770E7052680E3A4
:10137F007F101226B57F807E2512254B1225137BF9
:10138F00FF7A1E796612089B7BFF7A1F790AE4FDAC
:10139F00FF1221217F807E1A7D067C001220958FFF
:1013AF0028E528600C7F101226A17F5312262C806F
:1013BF00FE7F401226A11204478F28E528600C7F7C
:1013CF00101226A17F4312262C80FE7F401226B5D5
:1013DF007F807E1A7D067C001220958F28E528607D
:1013EF000C7F101226A17F5012262C80FEE4F526CA
:1013FF00F52774002527F58274003526F58374FFD1
:10140F00F00527E52770020526B400E6E526B402AD
:10141F00E11226AB8F29E529B4090F7BFF7A1F79DB
:10142F001AE4FD7F401221218010E529700C7BFF0B
:10143F007A1F7928FD7F401221217E007F00120044
:10144F00038F28AB36AA37A938900006120DCE8F1E
:10145F00318E308D2F8C2EAF31AE30AD2FAC2E752F
:10146F003D00753E00121771E48F358E34F533F55C
:10147F00327BFF7A1E797F12089B121D958F258E66
:10148F00248D238C22E4FFFEFDFCAB25AA24A92387
:10149F00A822D3120D974010AF35AE34AD33AC3216
:1014AF00A822D3120D9740167BFF7A1E798F120850
:1014BF009B121D958F258E248D238C2280C77F80B4
:1014CF001226A1AF31AE30AD2FAC2E85243D852530
:1014DF003E753F0075400012110C8F2D8E2C8D2BF9
:1014EF008C2AE4FFFEFDE52A5410FCE4FBFAF9F820
:1014FF00C3120D9760307BFF7A1E79BF12089BE5F0
:10150F002DF52DE52CF52CE52BF52BE52A540FF5B4
:10151F002AAF2DAE2CAD2BFC12221E8F318E308DAB
:10152F002F8C2E0214667BFF7A1E79E712089BE53B
:10153F002DF52DE52CF52CE52BF52BE52A540FF584
:10154F002AAF2DAE2CAD2BFC753D02753E00121946
:04155F0060021466AC
:101563005344204361726420496E697469616C69F4
:101573007A6174696F6E202E2E2E200A0D00434D62
:1015830044302073656E74202E2E2E200052657316
:10159300706F6E7365203D2025322E3262580A0D1E
:1015A30000434D44382073656E74202E2E2E200088
:1015B300526573706F6E7365203D200025322E32A5
:1015C3006258200A0D0056657273696F6E203120D0
:1015D3005344204361726420646574656374656475
:1015E3002E0A0D005374616E64617264204361704E
:1015F300616369747920436172642064657465630F
:101603007465642E0A0D0025322E3262582000566E
:10161300657273696F6E2032205344204361726494
:101623002064657465637465642E0A0D00434D443C
:1016330035382073656E74202E2E2E200041434DC5
:101643004434312073656E74202E2E2E200054698D
:101653006D656F7574203D20256C75200A0D00485B
:1016630069676820436170616369747920436172BB
:10167300642044657465637465640A0D0053746182
:101683006E6461726420436170616369747920439D
:101693006172642044657465637465640A0D004374
:1016A3004D4431362073656E74202E2E2E20005249
:1016B3006573706F6E7365203D2025322E3262583C
:1016C300200A0D00426C6F636B2073697A65207387
:1016D300657420746F203531322062797465730A22
:1016E3000D0053442054696D656F75742045727203
:1016F3006F7200496C6C6567616C20436F6D6D613F
:101703006E640A0D00526573706F6E7365204572C7
:10171300726F72004461746120546F6B656E204573
:1017230072726F7200496E636F6D70617469626C7F
:101733006520566F6C74616765004361726420694C
:101743007320496E61637469766500535049206F55
:10175300722054696D656F7574204572726F7200E3
:0E176300556E6B6E6F776E204572726F72005E
:0B1AAD00E4F56DF56CF56BF56A7F3A0F
:021AB8008F6934
:101ABA00E4F56FE569C394404003021BB2E569444B
:101ACA0040F56E7B007A007970FF1224CE8F71E5A3
:101ADA0071701CAF6DAE6CAD6BAC6A7818120DA844
:101AEA008F6E7B007A0079701224CE8F7180037515
:101AFA006F87E56F702FE571702BE56DF56DE56CFD
:101B0A00F56CE56BF56BE4F56AAF6DAE6CAD6BAC7D
:101B1A006A7810120DA88F6E7B007A0079701224F1
:101B2A00CE8F718003756F87E56F702DE57170290F
:101B3A00E56DF56DE56CF56CE4F56BF56AAF6DAEC8
:101B4A006CAD6BAC6A7808120DA88F6E7B007A00B8
:101B5A0079701224CE8F718003756F87E56F7018C4
:101B6A00E5717014E56DFFE48F6EFB7A007970AF52
:101B7A006E1224CE8F718003756F87E56F702CE526
:101B8A00717028E5697005756E95800DE569B40870
:101B9A0005756E878003756E017B007A007970AFD8
:0D1BAA006E1224CE8F718003756F82AF6FB5
:011BB700220B
:071F3600FB7A00793C7F01FA
:081F3D008F4D8B4E8A4F895035
:101F4500E4F554F555F5517B007A0079537FFF127E
:101F550024CE8F520555E55570020554E553B4FF5F
:101F65000AE55545546004E55260DCE552600575A7
:101F750051878061E555455470057551818056AB93
:101F85004EAA4FA950E553120BDBE55360046401DB
:101F95007040E54DD39401403C755400755501C31F
:101FA500E555954DE5549400502B7B007A00795307
:101FB5007FFF1224CE8F52AB4EAA4FA95085558272
:101FC500855483E553120BED0555E55570D1055440
:101FD50080CD7551837B007A0079537FFF1224CE23
:041FE5008F52AF5117
:011FE90022D5
:0A1BB8008E698F6A8B6B8A6C896D51
:101BC200E4F571F572F56F7B007A0079707FFF1290
:101BD20024CE8F6E0572E57270020571E57030E7F2
:101BE2000AE57245716004E56E60DCE56E600675BB
:101BF2006F87021CA7E57245717006756F81021C22
:101C0200A7E5706003021CA4F571F5727B007A00EF
:101C120079707FFF1224CE8F6E0572E57270020515
:101C220071E570B4FF0AE57245716004E56E60DC2F
:101C3200E56E6005756F87806CE57245717005759C
:101C42006F818061E57064FE7053F571F572C3E5D2
:101C520072956AE571956950287B007A0079707FE8
:101C6200FF1224CE8F6EAB6BAA6CA96D8572828532
:101C72007183E570120BED0572E57270D10571800A
:101C8200CD7B007A0079707FFF1224CE8F6E7B00AD
:101C92007A0079707FFF1224CE8F6E8008756F8470
:101CA2008003756F837B007A0079707FFF1224CEE8
:041CB2008F6EAF6F13
:011CB600220B
:10044700E4F53A781E76FF7F101226C17BFF7A15F6
:10045700796312089BE4F5397B007A0079447FFFC2
:100467001224CE8F3B0539E539C3940A40EA7F80D1
:100477001226A17BFF7A15798112089B7F1012261D
:10048700B0E4F56DF56CF56BF56AFF121AB88F3BA2
:10049700E53B7013121F368F3B7BFF7A15799085EA
:1004A7003C6E12089B80057F101226A17F10122632
:1004B700C17F801226B5E53B6002F53AE53A600355
:1004C7000205A67F801226A17BFF7A1579A4120860
:1004D7009B7F101226B0E4756DAA756C01F56BF55C
:1004E7006A7F08121AB88F3BE53B6003020597FB4A
:1004F7007A00793C7F05121F3D8F3B7F101226C182
:100507007F801226B5E53B603F7BFF7A1579B312F2
:10051700089B7BFF7A1579BF853C6E12089BE53BEC
:10052700B48320E53CB4051BE4F53A781E76097BD5
:10053700FF7A1579C912089B7BFF7A1579E71208AC
:100547009B805C853B3A80577BFF7A1579B312080D
:100557009BE4F5397BFF7A16790A743C2539F8E66E
:10056700F56E12089B0539E539C3940540E67F0D02
:100577001225DF7F0A1225DFE54064AA6003753B79
:1005870083781E76027BFF7A16791212089B800FFA
:100597007F101226C17F801226B57F101226A1E593
:1005A7003A60030206317F801226A17BFF7A167913
:1005B7003012089B7F101226B0121AAD8F3BE53B15
:1005C7007053FB7A00793C7F05121F3D8F3B7F10EC
:1005D7001226C17F801226B57BFF7A1579B31208E0
:1005E7009BE4F5397BFF7A16790A743C2539F8E6DE
:1005F700F56E12089B0539E539C3940540E67F0D72
:100607001225DF7F0A1225DFE53E54FC64FC6014E7
:10061700753B85800F7F101226C17F801226B57F1C
:10062700101226A1E53B6002F53AE53A600302079E
:1006370021781EE6B4020CE4F548F547F546754502
:10064700408009E4F548F547F546F545E4F54CF5EE
:100657004BF54AF5497F201226A17BFF7A16794090
:1006670012089B7F101226B0E4F56DF56CF56BF55B
:100677006A7F37121AB88F3BE53B7005121F368F1A
:100687003BE53C64016004E53C701385486D854794
:100697006C85466B85456A7F29121AB88F3BE53B07
:1006A7007003121F367F101226C1E54C2401F54C4A
:1006B700E4354BF54BE4354AF54AE43549F549E469
:1006C700FFFEFDFCAB4CAA4BA94AA849C3120D97E4
:1006D7007003753B81E53C30E004E53B6085E53B15
:1006E70070137F201226B57BFF7A157990853C6EB3
:1006F70012089B800A7F801226B57F101226A17BE5
:10070700FF7A167951854C71854B70854A6F8549FB
:100717006E12089BE53B6002F53AE53A6003020872
:100727002E781EE66402600302082E7F801226A13F
:100737007BFF7A16793012089B7F101226B0121AA7
:10074700AD8F3BE53B6003020814FB7A00793C7FE1
:1007570005121F3D8F3B7F101226C17F801226B5E1
:100767007BFF7A1579B312089BE4F5397BFF7A167C
:10077700790A743C2539F8E6F56E12089B0539E5C8
:1007870039C3940540E67F0D1225DF7F0A1225DF66
:10079700E53D20E706753B86020823E53D54C0FF8B
:1007A700BFC00FE4781EF67BFF7A16796212089BAA
:1007B700806A781E76097BFF7A16798012089B7FFC
:1007C700801226A17BFF7A1679A212089B7F10124E
:1007D70026B0E4F56D756C02F56BF56A7F10121A99
:1007E700B88F3BE53B7035121F368F3B7F101226C3
:1007F700C17F801226B57BFF7A1679B2853C6E12CF
:10080700089B7BFF7A1679C712089B800F7F10120F
:1008170026C17F801226B57F101226A1E53B60070F
:10082700F53AAF3A1222FDE53A6004FF1222FDAF16
:010837003A86
:01083800229D
:0526AB00781EE6FF228D
:1022FD008F4DE54DB481097BFF7A1679E502089B78
:10230D00E54DB482097BFF7A1679F602089BE54DFF
:10231D00B483097BFF7A17790802089BE54DB484D5
:10232D00097BFF7A17791702089BE54DB485097B68
:10233D00FF7A17792802089BE54DB486097BFF7A51
:10234D0017793D02089BE54DB487097BFF7A177914
:0E235D004E02089B7BFF7A17796312089B22C1
:10209500E4F539AB07AA06A905A804FF7E407D191A
:1020A5007C01120CEFEFD39402500575C370806963
:1020B500EFD39402400BEFD39404500575C37180A0
:1020C50058EFD39404400BEFD39408500575C372B1
:1020D5008047EFD39408400BEFD39410500575C398
:1020E500738036EFD39410400BEFD39420500575D1
:1020F500C3F08025EFD39420400BEFD394405005D7
:1021050075C3F18014EFD39440400BEFD394805006
:0B2115000575C3F2800375390FAF3968
:01212000229C
:1024CE00E4FDFC8FC5AFC47573008F740DBD0001A4
:1024DE000CE57454F07004ED4C70EAED4C601AE5A6
:1024EE00745470700AE5C5120BDBE4FCFD801374A6
:1024FE00FF120BDBE4FCFD800974FF120BDB7C008A
:04250E007D80AF0518
:0125120022A6
:0426C100EF42902232
:0526B000EFF45290223E
:102606005389F0438901C2A9758CF4758A3DC28D40
:10261600D28C308DFDC28CEF1F70011ED3EF94005B
:06262600EE940050E322D7
:10254B0053873F438780C2AC759852E4F59BFCFDE3
:10255B007BC0FAF9F8120C64A804A905AA06AB070C
:10256B00E4FFFE7D2F7C0D120CEFEFF404F59A7552
:05257B009B1ED2992215
:10262C00E4FDFC0DBD00010C209904ED4C70F4EDA3
:0F263C004C60088F99AE07C29980027EF1AF06FD
:01264B00226C
:072692003098FDAF99C298DA
:01269900221E
:10258000E4F5C8FCFDFEFB7A4079197801120C6471
:10259000E47B707A17F9F8120CEFC3E49FFFE49E16
:1025A000AD07AE05F5CDF5CB8ECC8ECAC2CFD2AD80
:0425B000D2AFD2CA0A
:0125B4002204
:0426C5004387012224
:030000000226864F
:0C268600787FE4F6D8FD75817E02133FDA
:100B9500BB010689828A83E0225002E722BBFE025E
:090BA500E32289828A83E4932291
:100BAE00BB010CE58229F582E5833AF583E02250FC
:100BBE0006E92582F8E622BBFE06E92582F8E22246
:0D0BCE00E58229F582E5833AF583E4932260
:100BDB00BB010689828A83F0225002F722BBFE01F9
:020BEB00F322F3
:100BED00F8BB010DE58229F582E5833AF583E8F03E
:100BFD00225006E92582C8F622BBFE05E92582C8EA
:020C0D00F222D1
:100C0F00BC000BBE0029EF8DF084FFADF022E4CCC9
:100C1F00F875F008EF2FFFEE33FEEC33FCEE9DEC92
:100C2F00984005FCEE9DFE0FD5F0E9E4CEFD22EDD8
:100C3F00F8F5F0EE8420D21CFEADF075F008EF2F22
:100C4F00FFED33FD4007985006D5F0F222C398FD13
:050C5F000FD5F0EA22B0
:100C6400E88FF0A4CC8BF0A42CFCE98EF0A42CFC2F
:100C74008AF0EDA42CFCEA8EF0A4CDA8F08BF0A4AD
:100C84002DCC3825F0FDE98FF0A42CCD35F0FCEB0C
:100C94008EF0A4FEA9F0EB8FF0A4CFC5F02ECD39D1
:0F0CA400FEE43CFCEAA42DCE35F0FDE43CFC223E
:100CB30075F008758200EF2FFFEE33FECD33CDCCF8
:100CC30033CCC58233C5829BED9AEC99E58298407B
:100CD3000CF582EE9BFEED9AFDEC99FC0FD5F0D658
:100CE300E4CEFBE4CDFAE4CCF9A88222B800C1B982
:100CF3000059BA002DEC8BF084CFCECDFCE5F0CBC0
:100D0300F97818EF2FFFEE33FEED33FDEC33FCEBF8
:100D130033FB10D703994004EB99FB0FD8E5E4F9B3
:100D2300FA227818EF2FFFEE33FEED33FDEC33FCA0
:100D3300C933C910D7059BE99A4007EC9BFCE99A94
:100D4300F90FD8E0E4C9FAE4CCFB2275F010EF2FD9
:100D5300FFEE33FEED33FDCC33CCC833C810D707D9
:100D63009BEC9AE899400AED9BFDEC9AFCE899F814
:0E0D73000FD5F0DAE4CDFBE4CCFAE4C8F922A7
:100D8100EB9FF5F0EA9E42F0E99D42F0EC6480C8E9
:060D910064809845F02289
:100D9700EB9FF5F0EA9E42F0E99D42F0E89C45F0B2
:010DA7002229
:100DA800E8600FECC313FCED13FDEE13FEEF13FF29
:030DB800D8F1224D
:100DBB00E8600FEFC333FFEE33FEED33FDEC33FC96
:030DCB00D8F1223A
:100DCE00BB010DE58229F582E5833AF583020E3DDE
:100DDE005007E92582F8020DFEBBFE07E92582F8D1
:100DEE00020E49E58229F582E5833AF583020E5516
:0C0DFE00E6FC08E6FD08E6FE08E6FF2221
:0D0E0A00E6FB08E6F908E6FA08E6CBF82258
:0C0E1700ECF608EDF608EEF608EFF62207
:0C0E2300ECF0A3EDF0A3EEF0A3EFF02242
:1025DF00EFB40A07740D1225EA740A309811A899FE
:1025EF00B8130CC2983098FDA899C298B811F6305C
:0725FF0099FDC299F5992234
:10083900E57A246EF8E6057A22786B300702786E3D
:10084900E475F001120E65020B952000EB7F2ED2A4
:10085900008018EF540F2490D43440D4FF30040B97
:10086900EF24BFB41A0050032461FFE57B60021531
:100879007B057EE57E7002057D30070D786BE4759A
:10088900F001120E65EF020BDB0225DF7403D207BC
:100899008003E4C207F57A8B6B8A6C896DE4F57B7A
:1008A900F57DF57EE57B60077F2012087480F5757C
:1008B9007CFFC201C200C202C203C205C206C2084D
:1008C900120842FF700D3007057F00120885AF7EC0
:1008D900AE7D22B4255FC2D5C204120842FF24D0DE
:1008E900B40A00501A75F00A787B30D50508B6FFAE
:1008F9000106C6A426F620D5047002D20380D924A5
:10090900CFB41A00EF5004C2E5D204020A85D2011D
:1009190080C6D20080C0D20280BCD2D580BAD205AE
:1009290080B47F201208742002077401B57B00404F
:10093900F1120839FF1208740208ADD208D20680F4
:1009490095120839FB120839FA120839F94A4B701D
:100959000679567A0B7BFF20022EE57B602A7E0002
:100969008E82758300120BAE60060EEE657C70F008
:10097900C2D5EBC0E0EAC0E0E9C0E0EE120ACCD093
:10098900E0F9D0E0FAD0E0FB120B95FF60AAEBC0CA
:10099900E0EAC0E0E9C0E0120874D0E02401F9D02F
:1009A900E03400FAD0E0FBE57C0460DCD57CD9803A
:1009B900877BFF7A0A79C8D202809C7910800279F4
:1009C90008C206C2088008D2D5790A8004790AC209
:1009D900D5E57C047002F57CE4FAFDFEFF120839C6
:1009E900FC7B08200113120839FD7B1030000A1224
:1009F9000839FE120839FF7B20EC3382D592D55095
:100A090013C3E43000069FFFE49EFEE42001039D2A
:100A1900FDE49CFCE4CBF8C201EC700CCFCECDCC4C
:100A2900E824F8F870F38017C3EF33FFEE33FEEDD7
:100A390033FDEC33FCEB33FB994002FB0FD8E9EBB8
:100A4900300105F8D0E0C448B201C0E00AEC4D4ECF
:100A59004F78207B0070C2EAB57C0040BCC0E01230
:100A69000ACED0F0D0E0200104C4C0E0C4B201C075
:100A7900F012085DD0F0D5F0EB0208AD120E750941
:100A89004A5309C458091B4C09174209C84F09D0D0
:100A99004409D04909304309D65509BA4609BA4526
:100AA90009BA470B7650091F2D09232E09462B0930
:100AB90027230944200B642A08DF480000093E3F28
:100AC9003F3F00790AA2D5200314300509B9100265
:100AD9000404B9080104A2D5200602500104200229
:050AE900689202B57BDC
:100AEE00005034C0E07F203003197F30A20272061E
:100AFE007205500F120B25C202C206C205C2087F34
:100B0E0030800F300503E9C0E0120874300503D0C1
:100B1E00E0F9D0E0B57BCC3005177F30B9100C1260
:100B2E0008747F583004077F788003B908031208D1
:100B3E00743002057F2D0208747F202008F87F2B69
:100B4E002006F322920280CF286E756C6C29002D40
:100B5E0050434958D2011208393001F8C201787B4E
:100B6E0030D50108F60208DF1208392403B4050057
:100B7E004001E4900B5D93120865743A120865D239
:070B8E0003757B040209C49A
:101CB7008B5E8A5F8960AB5EAA5FA960120B95FF96
:101CC700122664500D74012560F560E4355FF55FF9
:101CD70080E4D200AB5EAA5FA960120B95FF642B6C
:101CE7006004EFB42D1BAB5E0560E560AA5F700270
:101CF700055F14F9120B95642D6003D38001C3921D
:101D070000E4F564F563F562F561AB5EAA5FA9606F
:101D1700120B95FF122677505CE47F0AFEFDFCABA1
:101D270064AA63A962A861120C64C8ECC8EDC0E09C
:101D3700EEC0E0EFC0E0AB5EAA5FA960120B95FFB3
:101D47003395E0FEEF24D0FFEE34FFFEE4FCFDD038
:101D5700E0FBD0E0FAD0E0F9EB2FF564EA3EF5635B
:101D6700ED39F562EC38F56174012560F560E4350D
:101D77005FF55F809530000AAF64AE63AD62AC611A
:0E1D8700800BAF64AE63AD62AC61120E2F2212
:0E0E2F00C3E49FFFE49EFEE49DFDE49CFC22D4
:0C0E3D00E0FCA3E0FDA3E0FEA3E0FF2228
:0C0E4900E2FC08E2FD08E2FE08E2FF22E5
:100E5500E493FC740193FD740293FE740393FF22E3
:100E6500FAE6FB0808E6F925F0F618E6CA3AF6228E
:100E7500D083D082F8E4937012740193700DA3A30C
:100E850093F8740193F5828883E473740293686020
:060E9500EFA3A3A380DF20
:0F267700EFC394304007EF943A50028001C32222
:10266400EFC394094005EF940E4003BF2003D380C9
:0326740001C3227D
:00000001FF
