:1029C400446F6E6520696E6974616C697A696E67BB
:1029D4002075617274210D0A00446F6E6520696E62
:1029E4006974616C697A696E67204C4344210D0AED
:1029F40000446F6E6520696E6974616C697A696EF2
:102A04006720535441303133210D0A00534420438D
:102A140061726420546573742050726F6772616DC3
:102A24000A0D0A0A00496E70757420456E74727935
:102A340020233A2000496E76616C69642073656CCA
:102A4400656374696F6E2E20506C656173652073C5
:102A5400656C65637420612076616C696420656EC1
:102A64007472792E00456E74727920697320612026
:102A74006469726563746F72792E2E2E4F70656E61
:102A8400696E67206E6F772E2E2E0D0A00456E74C8
:102A9400727920697320612066696C652E2E2E4F31
:102AA40070656E696E67206E6F772E2E2E0D0A008C
:102AB4005344204361726420496E69742E2E2E00A3
:102AC4005374642E204361706163697479004869AA
:0C2AD400676820436170616369747900D9
:101DD90012392A8B398A3A893B758E0C758F017FA6
:101DE9000F1239497FE01239457F10123931E4F574
:101DF90029F52AAE29AF2AE4FCFD7B607AEAF9F8D5
:101E0900C3121970400A052AE52A70E7052980E3FB
:101E19007F101239457F807E251237B07BFF7A29E2
:101E290079C41214521237787BFF7A2979DD12149A
:101E3900521232F57BFF7A2979F51214527BFF7A17
:101E49002A79101214527BFF7A2A79B4E4FDFF1221
:101E590034A27F807E1A7D067C001234168F2BE512
:101E69002B600C7F101239317F5312386A80FE7F44
:101E790040123931120FFE8F2BE52B600C7F1012A7
:101E890039317F4312386A80FE7F401239457F809D
:101E99007E1A7D067C001234168F2BE52B600C7F91
:101EA900101239317F5012386A80FEE4F529F52A7B
:101EB9007400252AF58274003529F58374FFF0052D
:101EC9002AE52A70020529B400E6E529B402E112DF
:101ED900393B8F2CE52CB4090F7BFF7A2A79C4E4AE
:101EE900FD7F401234A28010E52C700C7BFF7A2A0A
:101EF90079D2FD7F401234A27E007F00121AA38F8F
:101F09002BAB39AA3AA93B9000061219BD8F348E22
:101F1900338D328C31AF34AE33AD32AC31754000D4
:101F2900754100122456E48F388E37F536F5357B26
:101F3900FF7A2A7929121452122EB68F288E278DEC
:101F4900268C25E4FFFEFDFCAB28AA27A926A82597
:101F5900D31219864010AF38AE37AD36AC35A82547
:101F6900D312198640167BFF7A2A79391214521234
:101F79002EB68F288E278D268C2580C77F80123913
:101F890031AF34AE33AD32AC318527408528417548
:101F990042007543001220158F308E2F8D2E8C2D07
:101FA900E4FFFEFDE52D5410FCE4FBFAF9F8C31239
:101FB900198660307BFF7A2A7969121452E530F567
:101FC90030E52FF52FE52EF52EE52D540FF52DAF24
:101FD90030AE2FAD2EFC1235278F348E338D328CD7
:101FE90031021F1E7BFF7A2A7991121452E530F5CE
:101FF90030E52FF52FE52EF52EE52D540FF52DAFF4
:0C20090030AE2FAD2EFC122CEA021F1E80
:102F87002535642E20005B4449525D0A0045727264
:102F97006F7220686173206F6363757265640044A4
:102FA700656275673A3A204F66667365742030200C
:102FB7006F6620536563746F722030206973202514
:102FC700780D0A00466F756E64204D42522E2E2EE4
:102FD7000D0A0044656275673A3A204F6666736565
:102FE700742030206F662052656C617469766520A5
:102FF700536563746F727320697320256C780D0AAB
:103007000044656275673A3A2074656D70382069C7
:10301700732025780D0A004572726F722042504264
:10302700206E6F7420466F756E64210D0A00425042
:0B3037004220466F756E64210D0A00F8
:07392A007B007A007978228E
:0F38C900E551240BFFE43550FEAB57AA58A9591F
:0838D8008F828E83121765FF39
:0138E00022C5
:0A3674008E618F628B638A648965A2
:10367E00E4F569F568F567F566F56AAB63E565250A
:10368E0062F9E5643561FAC37401956AFFE494004A
:10369E00FEE92FF9EA3EFA12174CFBAF69AE68ADA0
:1036AE0067AC6678081219AA8F698E688D678C666A
:1036BE00AF03E4E5694FF569E568F568E567F56719
:0F36CE00E566F566056AE56AB402B0AE68AF69F5
:0136DD0022CA
:0A3598008E618F628B638A6489657F
:1035A200E4F569F568F567F566F56AAB63E56525E7
:1035B20062F9E5643561FAC37403956AFFE4940025
:1035C200FEE92FF9EA3EFA12174CFBAF69AE68AD7D
:1035D20067AC6678081219AA8F698E688D678C6647
:1035E200AF03E4E5694FF569E568F568E567F567F6
:1035F200E566F566056AE56AB404B0AF69AE68AD22
:0336020067AC664C
:0136050022A2
:082456008F3F8E3E8D3D8C3C52
:10245E00755301854054854155E4F54CF54DF54ACB
:10246E00F54B7879E6B4020F788A1219ED8F498E02
:10247E00488D478C46800D7878E6FFE48F49F54805
:10248E00F547F546853F45853E44853D43853C42AF
:10249E00AF45AE44AD43AC42787CE6F56508E6F553
:1024AE00668553678554688555691236DE8F52E509
:1024BE00526003022632AB53AA54A955AF4BAE4A13
:1024CE001238D88F4EE54E64E570030225A4E54E12
:1024DE0070030225A4E54B240BFFE4354AFEAB53F3
:1024EE00AA54A9551238D88F50E550540E600302E5
:1024FE0025A4054DE54D7002054C7BFF7A2F79879B
:10250E00854C64F565121452E4F54F7E00E54B25BB
:10251E004FFFEE354AFEAB53AA54A9551238D88F49
:10252E0051120003054FE54FC3940840DEE55030CD
:10253E00E430754F087E00E54B254FFFEE354AFE21
:10254E00AB53AA54A9551238D88F51120003054F18
:10255E00E54FC3940B40DE7BFF7A2F798D12145218
:10256E0080347F2E120003754F087E00E54B254FF9
:10257E00FFEE354AFEAB53AA54A9551238D88F51E7
:10258E00120003054FE54FC3940B40DE7F0D120082
:10259E00037F0A1200037420254BF54BE4354AF5F0
:1025AE004AD3E54B94FEE54A9401406FE54524017C
:1025BE00F545E43544F544E43543F543E43542F559
:1025CE0042C3E545953FFFE544953EFEE543953D07
:1025DE00FDE542953CFCAB49AA48A947A846D31253
:1025EE0019864031AF45AE44AD43AC42787CE6F53A
:1025FE006508E6F566855367855468855569123614
:10260E00DE8F52E5526007E4F54CF54DF54EE4F5DC
:10261E004AF54B8006434C80E4F54EE54E600302CE
:10262E0024C4800E7BFF7A2F7994121452E4F54C59
:06263E00F54DAE4CAF4D5E
:012644002273
:082015008F3F8E3E8D3D8C3C97
:10201D00755701854258854359E4F552F553F550EE
:10202D00F551F54FF54EF54DF54C7879E6B4020FB7
:10203D00788A1219ED8F4B8E4A8D498C48800D7818
:10204D0078E6FFE48F4BF54AF549F548853F47851E
:10205D003E46853D45853C44AF47AE46AD45AC4417
:10206D00787CE6F56508E6F56685576785586885D9
:10207D0059691236DE8F56E5566003022219AB57A9
:10208D00AA58A959AF51AE501238D88F54E554649F
:10209D00E57003022189E55470030221891238C9C4
:1020AD008F55E555540E60030221890553E5537094
:1020BD0002055265417004E55265406003022189B5
:1020CD007879E664047050E55124151238CDE48F0B
:1020DD004FF54EF54DF54CAE4EAD4DAC4C7808125E
:1020ED0019AA8F4F8E4E8D4D8C4CE55124141238FC
:1020FD00CDE4E54F4FF54FE54EF54EE54DF54DE58C
:10210D004CF54CAF4FAE4EAD4DFC78081219AA8F61
:10211D004F8E4E8D4D8C4CE551241B1238CDE4E580
:10212D004F4FF54FE54EF54EE54DF54DE54CF54C64
:10213D00AF4FAE4EAD4DFC78081219AA8F4F8E4E93
:10214D008D4D8C4CE551241A1238CDE4E54F4FF5E9
:10215D004FE54EF54EE54DF54DE54CF54C1238C9B4
:10216D008F55E55530E412E54FF54FE54EF54EE54B
:10217D004DF54DE54C4410F54CE4F55474202551C6
:10218D00F551E43550F550D3E55194FEE5509401E9
:10219D004071E5472401F547E43546F546E43545FC
:1021AD00F545E43544F544C3E547953FFFE54695D0
:1021BD003EFEE545953DFDE544953CFCAB4BAA4AFD
:1021CD00A949A848D31219864036AF47AE46AD454A
:1021DD00AC44787CE6F56508E6F566855767855865
:1021ED00688559691236DE8F56E556600CE4F54F59
:1021FD00F54EF54D754C80F554E4F550F5518003D1
:10220D00E4F554E554600302208B800AE4F54FF5A4
:10221D004EF54D754C80E4FFFEFDFCAB4FAA4EA96B
:10222D004DA84CC31219867009F54FF54EF54D7535
:0A223D004C80AF4FAE4EAD4DAC4CDF
:012247002274
:041AA3008E3C8F3DA9
:101AA700756502756600AA06A9077567018A6889C0
:101AB700697F007E007D007C001236DE8F3FAA3CE6
:101AC700A93D7B01E4FFFE1238D88F3E7BFF7A2FBA
:101AD70079A6853E64121452E53E64EB7003021B3F
:101AE70076E53E64E97003021B767BFF7A2F79CB9C
:101AF700121452AA3CA93D7B017FC67E011235987C
:101B07008F5C8E5B8D5A8C597BFF7A2F79DA8F67C2
:101B17008E668D658C64121452AF5CAE5BAD5AACA9
:101B270059756502756600756701853C68853D696D
:101B37001236DE8F3FAA3CA93D7B01E4FFFE123837
:101B4700D88F3E7BFF7A307908853E64121452E5C0
:101B57003E64EB6011E53E64E9600B7BFF7A307908
:101B67001E12145280097BFF7A307935121452AA5B
:101B77003CA93D7B017F0B7E00123674787CA6065C
:101B870008A607AA3CA93D7B017F0D7E001238D825
:101B97007878A607AA3CA93D7F0E1236748E408F2F
:101BA70041AA3CA93D7B017F107E001238D88F42A5
:101BB700AA3CA93D7F111236748E438F44AA3CA9D3
:101BC7003D7B017F137E001236748E458F46AA3CFB
:101BD700A93D7B017F167E001236748E478F48AA77
:101BE7003CA93D7B017F207E001235988F4C8E4BA0
:101BF7008D4A8C49AA3CA93D7B017F247E00123582
:101C0700988F508E4F8D4E8C4DAA3CA93D7B017FFE
:101C17002C7E001235988F588E578D568C55E4E5DB
:101C270041255CFFE540355BFEE4355AFDE4355957
:101C3700FC7886121A06E544AE437805C333CE33E3
:101C4700CED8F9FF787CE6FC08E6FD24FFFBEC34F0
:101C5700FFCB2FFFEB3EFE1217C6E4FCFD788A127E
:101C67001A06AF42E4FCFDFEAB50AA4FA94EA84DA1
:101C7700121853A804A905AA06AB07E4FCFDEB2537
:101C870041FFEA3540FEED39FDEC38FC788A121940
:101C9700F9EF2BFFEE3AFEED39FDEC38FCEF255C52
:101CA700FFEE355BFEED355AFDEC3559FC788212B7
:101CB7001A06E55824FEFFE55734FFFEE55634FFC4
:101CC700FDE55534FFFCC004A905AA06AB077878E3
:101CD700E6FFE4FCFDFED00012185378821219F9D2
:101CE700EF2BFFEE3AFEED39FDEC38FC787E121A49
:101CF70006787B7602E5484547600DE485485485BC
:101D07004753F552F551800C855054854F53854EF6
:101D170052854D51E5464545600FAE45AF46E4FC5B
:101D2700FD900800121A12800EAF4CAE4BAD4AACB4
:101D370049900800121A12AF42E4FCFDFEAB54AA08
:101D470053A952A851121853788A1219F9EF2BFB8D
:101D5700EE3AFAED39F9EC38F8E4FCFDEB2541FBF6
:101D6700EA3540FAED39F9EC38F8900800E0FCA3C1
:101D7700E0FDA3E0FEA3E0C39BFFEE9AFEED99FD15
:101D8700EC98FCA3121A127878E6FFE4FCFDFEF843
:101D9700F9FAAB07900804E0FCA3E0FDA3E0FEA37B
:101DA700E0FF1218DE8F608E5F8D5E8C5DE47FF53D
:101DB7007EFFFDFCAB60AA5FA95EA85DC312198612
:101DC700500978797602753FF1800478797604AF07
:011DD7003FCC
:011DD80022E8
:083527008F438E428D418C4060
:10352F00E4FFFEFDFCAB43AA42A941A840C3121918
:10353F0086700F787E1219ED8F478E468D458C441D
:10354F00803EE54324FEFFE54234FFFEE54134FFB4
:10355F00FDE54034FFFCC004A905AA06AB07787847
:10356F00E6FFE4FCFDFED00012185378821219F921
:10357F00EF2BF547EE3AF546ED39F545EC38F544C6
:08358F00AF47AE46AD45AC4468
:013597002211
:0831A9008F1A8E198D188C1786
:1031B100E47F04FEFDFCAB1AAA19A918A81712187E
:1031C10053C004C005C006C007787CE6FE08E6FFD0
:1031D100E4FCFDF8F9AA06AB07D007D006D005D06C
:1031E100041218DE78861219F9EF2BFFEE3AFEED84
:1031F10039FDEC38FC787CE6F56508E6F56675671F
:1032010001851B68851C691236DEE47F04FEFDFC26
:10321100AB1AAA19A918A817121853C004C005C0DF
:1032210006C007787CE6FE08E6FFE4FCFDF8F9AA93
:1032310006AB07D007D006D005D0041218DEAE02C7
:10324100AF03AA1BA91C7B01123598EFEEEDEC54DC
:023251000FFC70
:013253002258
:0830F6008F0B8E0A8D098C0876
:1030FE00E4F50EAF0BAE0AAD09AC081235278F16EC
:10310E008E158D148C138F128E118D108C0F787866
:10311E00E6FFE4EF2516FFE43515FEE43514FDE475
:10312E003513FCAB12AA11A910A80FC31219866091
:10313E0036AF12AE11AD10AC0F787CE6F56508E631
:10314E00F566756701850C68850D691236DE8F0E82
:10315E00E5122401F512E43511F511E43510F510E0
:10316E00E4350FF50F80A7AF0BAE0AAD09AC08859D
:10317E000C1B850D1C1231A98F0B8E0A8D098C0824
:10318E0074FFFFFEFD7C0FAB0BAA0AA909A808C3AA
:0A319E001219866003023101AF0E22
:0131A8002204
:10381A008D42EF70077F4012393680057F4012399A
:10382A004D7F8012394DAF421239597F8012393695
:0A383A007FFF1239597F4002394D1B
:103778007D38E4FF12381A7F017E001238447D48F4
:10378800E4FF12381A7F017E001238447D01E4FFFD
:1037980012381A7F027E001238447D0CE4FF12387A
:0837A8001A7F017E0002384483
:0834A2008D3C8B3D8A3E893F01
:1034AA00EFF46010EF4480FDE4FF12381A7F017ECA
:1034BA0000123844E53C7038F540AB3DAA3EA93FBE
:1034CA00854082F583121765F541E541604EFD7F1F
:1034DA000112381A7F017E001238440540AB3DAA1A
:1034EA003EA93F854082758300121765F54180DA4F
:1034FA00E4F540E540C3953C5022AB3DAA3EA93FC6
:10350A00854082758300121765F541FD7F011238E7
:0C351A001A7F017E00123844054080D763
:013526002282
:05393100EFF452A0229A
:04394500EF42A0228B
:102EB600E4F53C743E253CF8E4F6053CE53CB40BF1
:102EC600F274FFF54CF54BF54AF549E4F53C123939
:102ED600228F3DE53DC394304017E53DD3943950EC
:102EE60010743E253CF8A63D053CAF3D120003801C
:102EF60050E53D64086005E53DB47F1A153C743E17
:102F0600253CF8E4F67F0812386A7F2012386A7F7B
:102F16000812386A802BE53D640D6005E53DB40A6C
:102F26001D7B007A00793E122DD88F4C8E4B8D4A30
:102F36008C497F0D12386A7F0A12386A8003E4F5DD
:102F46003DE53CB40A1B7B007A00793E122DD88FF2
:102F56004C8E4B8D4A8C497F0D12386A7F0A123887
:102F66006A74FFFFFEFDFCAB4CAA4BA94AA849C3F5
:102F76001219867003022ED4AF4CAE4BAD4AAC4943
:012F86002228
:033959008F80223A
:05393600EFF452B02285
:04394900EF42A02287
:04394D00EF42B02273
:0836DE008F648E638D628C6124
:1036E600E4F56B12393B8F6A7F10123940AF64AE36
:1036F60063AD62AC61A96AA8011219AA8F708E6FB8
:103706008D6E8C6D7F11122AEB8F6BE56B700FAB94
:1037160067AA68A969AF66AE65122BEB8F6B7F103F
:0C372600123951E56B6003756BF0AF6B5E
:013732002274
:102248005344204361726420496E697469616C6902
:102258007A6174696F6E202E2E2E200A0D00434D70
:1022680044302073656E74202E2E2E200052657324
:10227800706F6E7365203D2025322E3262580A0D2C
:1022880000434D44382073656E74202E2E2E200096
:10229800526573706F6E7365203D200025322E32B3
:1022A8006258200A0D0056657273696F6E203120DE
:1022B8005344204361726420646574656374656483
:1022C8002E0A0D005374616E64617264204361705C
:1022D800616369747920436172642064657465631D
:1022E8007465642E0A0D0025322E3262582000567D
:1022F800657273696F6E20322053442043617264A3
:102308002064657465637465642E0A0D00434D444A
:1023180035382073656E74202E2E2E200041434DD3
:102328004434312073656E74202E2E2E200054699B
:102338006D656F7574203D20256C75200A0D004869
:1023480069676820436170616369747920436172C9
:10235800642044657465637465640A0D0053746190
:102368006E646172642043617061636974792043AB
:102378006172642044657465637465640A0D004382
:102388004D4431362073656E74202E2E2E20005257
:102398006573706F6E7365203D2025322E3262584A
:1023A800200A0D00426C6F636B2073697A65207395
:1023B800657420746F203531322062797465730A30
:1023C8000D0053442054696D656F75742045727211
:1023D8006F7200496C6C6567616C20436F6D6D614D
:1023E8006E640A0D00526573706F6E7365204572D6
:1023F800726F72004461746120546F6B656E204582
:1024080072726F7200496E636F6D70617469626C8D
:102418006520566F6C74616765004361726420695A
:102428007320496E61637469766500535049206F63
:10243800722054696D656F7574204572726F7200F1
:0E244800556E6B6E6F776E204572726F72006C
:0B2AE000E4F570F56FF56EF56D7F3AC0
:022AEB008F6CEE
:102AED00E4F572E56CC394404003022BE5E56C44BC
:102AFD0040F5717B007A007973FF1237338F74E5DF
:102B0D0074701CAF70AE6FAD6EAC6D7818121997F6
:102B1D008F717B007A0079731237338F7480037550
:102B2D007287E572702FE574702BE570F570E56FA7
:102B3D00F56FE56EF56EE4F56DAF70AE6FAD6EAC25
:102B4D006D78101219978F717B007A007973123797
:102B5D00338F748003757287E572702DE57470295B
:102B6D00E570F570E56FF56FE4F56EF56DAF70AE70
:102B7D006FAD6EAC6D78081219978F717B007A006E
:102B8D0079731237338F748003757287E5727018FD
:102B9D00E5747014E570FFE48F71FB7A007973AF03
:102BAD00711237338F748003757287E572702CE55F
:102BBD00747028E56C7005757195800DE56CB40821
:102BCD000575718780037571017B007A007973AF8C
:0D2BDD00711237338F748003757282AF72EE
:012BEA0022C8
:07304200FB7A00793F7F01DA
:083049008F508B518A5289530C
:10305100E4F557F558F5547B007A0079567FFF1255
:1030610037338F550558E55870020557E556B4FFBB
:103071000AE55845576004E55560DCE5556005757E
:1030810054878061E558455770057554818056AB6A
:1030910051AA52A953E556121792E55660046401EC
:1030A1007040E550D39401403C755700755801C3F9
:1030B100E5589550E5579400502B7B007A007956DE
:1030C1007FFF1237338F55AB51AA52A953855882CE
:1030D100855783E5561217A40558E55870D1055751
:1030E10080CD7554837B007A0079567FFF12373388
:0430F1008F55AF54F4
:0130F50022B8
:0A2BEB008E6C8F6D8B6E8A6F8970FF
:102BF500E4F574F575F5727B007A0079737FFF1241
:102C050037338F710575E57570020574E57330E727
:102C15000AE57545746004E57160DCE5716006756B
:102C25007287022CDAE57545747006757281022C7F
:102C3500DAE5736003022CD7F574F5757B007A002D
:102C450079737FFF1237338F710575E5757002054E
:102C550074E573B4FF0AE57545746004E57160DCDD
:102C6500E5716005757287806CE57545747005754D
:102C750072818061E57364FE7053F574F575C3E583
:102C850075956DE574956C50287B007A0079737F96
:102C9500FF1237338F71AB6EAA6FA9708575828568
:102CA5007483E5731217A40575E57570D1057480F5
:102CB500CD7B007A0079737FFF1237338F717B00EC
:102CC5007A0079737FFF1237338F718008757284AC
:102CD50080037572837B007A0079737FFF12373327
:042CE5008F71AF72CA
:012CE90022C8
:100FFE00E4F53D78A476FF7F101239517BFF7A22FB
:10100E007948121452E4F53C7B007A0079477FFF51
:10101E001237338F3E053CE53CC3940A40EA7F808D
:10102E001239317BFF7A2279661214527F101239EF
:10103E0040E4F570F56FF56EF56DFF122AEB8F3EFD
:10104E00E53E70131230428F3E7BFF7A2279758512
:10105E003F6412145280057F101239317F101239FD
:10106E00517F80123945E53E6002F53DE53D600356
:10107E0002115D7F801239317BFF7A227989121439
:10108E00527F10123940E47570AA756F01F56EF536
:10109E006D7F08122AEB8F3EE53E600302114EFB78
:1010AE007A00793F7F051230498F3E7F10123951F9
:1010BE007F80123945E53E603F7BFF7A2279981298
:1010CE0014527BFF7A2279A4853F64121452E53EB6
:1010DE00B48320E53FB4051BE4F53D78A476097B87
:1010EE00FF7A2279AE1214527BFF7A2279CC121437
:1010FE0052805C853E3D80577BFF7A227998121490
:10110E0052E4F53C7BFF7A2279EF743F253CF8E6FA
:10111E00F564121452053CE53CC3940540E67F0D80
:10112E001200037F0A120003E54364AA6003753EB2
:10113E008378A476027BFF7A2279F7121452800FFD
:10114E007F101239517F801239457F10123931E5E7
:10115E003D60030211E87F801239317BFF7A2379DB
:10116E00151214527F10123940122AE08F3EE53EBE
:10117E007053FB7A00793F7F051230498F3E7F1006
:10118E001239517F801239457BFF7A2279981214D9
:10119E0052E4F53C7BFF7A2279EF743F253CF8E66A
:1011AE00F564121452053CE53CC3940540E67F0DF0
:1011BE001200037F0A120003E54154FC64FC601424
:1011CE00753E85800F7F101239517F801239457F11
:1011DE0010123931E53E6002F53DE53D6003021225
:1011EE00D878A4E6B4020CE4F54BF54AF5497548F7
:1011FE00408009E4F54BF54AF549F548E4F54FF51D
:10120E004EF54DF54C7F201239317BFF7A2379252F
:10121E001214527F10123940E4F570F56FF56EF529
:10122E006D7F37122AEB8F3EE53E70051230428FEE
:10123E003EE53F64016004E53F7013854B70854ABF
:10124E006F85496E85486D7F29122AEB8F3EE53EEC
:10125E0070031230427F10123951E54F2401F54FC1
:10126E00E4354EF54EE4354DF54DE4354CF54CE494
:10127E00FFFEFDFCAB4FAA4EA94DA84CC31219861A
:10128E007003753E81E53F30E004E53E6085E53E46
:10129E0070137F201239457BFF7A227975853F6462
:1012AE00121452800A7F801239457F101239317B19
:1012BE00FF7A237936854F67854E66854D65854C59
:1012CE0064121452E53E6002F53DE53D60030213E3
:1012DE00E578A4E6640260030213E57F80123931DB
:1012EE007BFF7A2379151214527F10123940122A7D
:1012FE00E08F3EE53E60030213CBFB7A00793F7F21
:10130E00051230498F3E7F101239517F80123945B8
:10131E007BFF7A227998121452E4F53C7BFF7A22F5
:10132E0079EF743F253CF8E6F564121452053CE55E
:10133E003CC3940540E67F0D1200037F0A120003A2
:10134E00E54020E706753E860213DAE54054C0FFFD
:10135E00BFC00FE478A4F67BFF7A237947121452AC
:10136E00806A78A476097BFF7A2379651214527FFE
:10137E00801239317BFF7A2379871214527F101233
:10138E003940E4F570756F02F56EF56D7F10122A17
:10139E00EB8F3EE53E70351230428F3E7F10123994
:1013AE00517F801239457BFF7A237997853F6412EE
:1013BE0014527BFF7A2379AC121452800F7F1012D5
:1013CE0039517F801239457F10123931E53E600761
:1013DE00F53DAF3D123606E53D6004FF123606AF11
:0113EE003DC1
:0113EF0022DB
:05393B0078A4E6FF2264
:103606008F50E550B481097BFF7A2379CA021452A0
:10361600E550B482097BFF7A2379DB021452E55028
:10362600B483097BFF7A2379ED021452E550B48402
:10363600097BFF7A2379FC021452E550B485097B95
:10364600FF7A24790D021452E550B486097BFF7A7D
:10365600247922021452E550B487097BFF7A247933
:0E366600330214527BFF7A2479481214522248
:10341600E4F53CAB07AA06A905A804FF7E407D1982
:103426007C011218DEEFD39402500575C3708069D3
:10343600EFD39402400BEFD39404500575C371800B
:1034460058EFD39404400BEFD39408500575C3721C
:103456008047EFD39408400BEFD39410500575C303
:10346600738036EFD39410400BEFD394205005753C
:10347600C3F08025EFD39420400BEFD39440500542
:1034860075C3F18014EFD39440400BEFD394805072
:0B3496000575C3F28003753C0FAF3CCE
:0134A1002208
:10373300E4FDFC8FC5AFC47576008F770DBD000126
:103743000CE57754F07004ED4C70EAED4C601AE52B
:10375300775470700AE5C5121792E4FCFD80137468
:10376300FF121792E4FCFD800974FF1217927C008C
:043773007D80AF05A1
:01377700222F
:04395100EF4290228F
:05394000EFF45290229B
:103844005389F0438901C2A9758CF4758A3DC28DF0
:10385400D28C308DFDC28CEF1F70011ED3EF94000B
:06386400EE940050E32287
:1037B00053873F438780C2AC759852E4F59BFCFD6C
:1037C0007BC0FAF9F8121853A804A905AA06AB079A
:1037D000E4FFFE7D2F7C0D1218DEEFF404F59A75E0
:0537E0009B1ED299229E
:10386A00E4FDFC0DBD00010C209904ED4C70F4ED53
:0F387A004C60088F99AE07C29980027EF1AF06AD
:01388900221C
:073922003098FDAF99C29837
:01392900227B
:1037E500E4F5C8FCFDFEFB7A4079197801121853FF
:1037F500E47B707A17F9F81218DEC3E49FFFE49EA4
:10380500AD07AE05F5CDF5CB8ECC8ECAC2CFD2AF06
:04381500D2ADD2CA94
:01381900228C
:043955004387012281
:10388A00E4FF1238B3C291D290E4FF1238B3D29156
:0F389A003091FDA29092042004037F00227F0151
:0138A90022FC
:02277F008F4F7A
:10278100E4F559F55AF55BF55CC200F55DC201E56A
:1027910054D39400401D85536285526185516085F3
:1027A100505F855463E4F564F565F566F5671226B7
:1027B100458F5DD290D2912091030228A0209003F1
:1027C1000228A01238E1E54F25E0F559435901C22D
:1027D10090E4F55A755B08E4FF1238B3C291155BBA
:1027E100AF5BE559A807088002C313D8FC13920117
:1027F100A2011238AFD2913091FDA2909200A200B5
:10280100300101B35003755D01E55B6004E55D6076
:10281100C612388AEF60037F0222E555D394004047
:102821005EE55D705A755B08E4FF1238B3C291151D
:102831005BD290E55C25E0F55CE4FF1238B3D29100
:102841003091FDA2909200A200E433425CE55B70FE
:10285100D7AB56AA57A958855A82F583E55C12175A
:10286100A4055AD55504D2018002C201E4FF1238F1
:10287100B3C291A2011238AFD29120919D80FBE5A4
:102881005D6401601AE4FF1238B3C291C290E4FFA3
:102891001238B3D2913091FD7F011238B3D290AF8B
:0128A1005DD9
:0128A2002213
:0938AA00139203A2039290E4FFC3
:1038B300308E03308FFDC28EEF700A758DFF758BCE
:0638C300C3C28FD28E2269
:1038E10053890F438910C2AB758DFF758BC3C28F8E
:0338F100D28E2252
:10264500E4F568F569F56AF56BC202F56CC203D26B
:1026550090D29120910302275D20900302275D12FD
:1026650038E1EF25E0F568C290E4F569756A08E49C
:10267500FF1238B3C291156AAF6AE568A8070880EA
:1026850002C313D8FC1238AAD2913091FDA29092C0
:1026950002A202300301B35003756C01E56A6004C0
:1026A500E56C60CB12388AEF60037F0222E563D3C5
:1026B50094004044756A08856268E4FF1238B3C225
:1026C50091156AAF6AE568A807088002C313D8FCAC
:1026D5001238AAD2913091FDA2909202A202300343
:1026E50001B35003756C01E56A6004E56C60CB12BB
:1026F500388AEF60037F0222E564D394004059E5F0
:102705006C7055756A08AB65AA66A967856982F517
:1027150083121765F568E4FF1238B3C291156AAFE5
:102725006AE568A807088002C313D8FC1238AAD244
:10273500913091FDA2909202A202300301B35003A1
:10274500756C01E56A6004E56C60CB15640569127A
:10275500388AEF60A37F0222E56C64016019E4FF0B
:102765001238B3C291C290E41238B3D2913091FDC0
:092775007F011238B3D290AF6C61
:01277E002238
:1032540052656365697665642056616C7565203DC9
:103264002025322E3262580A0D002D2D2D2D2D2DA4
:103274002D2D2D2D2D2D2D2D2D2D2D2D2D2D436F22
:103284006E666967203120476F212121212D2D2D64
:103294002D2D2D2D2D2D2D2D2D2D2D2D2D2D2D2D5A
:1032A4002D0D0A002D2D2D2D2D2D2D2D2D2D2D2DBA
:1032B4002D2D2D2D2D2D2D2D436F6E6669672032FA
:1032C40020476F212121212D2D2D2D2D2D2D2D2D0B
:1032D4002D2D2D2D2D2D2D2D2D2D2D0D0A00466935
:1032E4006E697368656420496E69742E2E2E0D0A0A
:0132F40000D9
:1032F500E4F53DE4756201F561F560F55F7563011F
:10330500F564F56575660075673E7F43122645E4ED
:10331500F553F552F551F550F554755501F55675BA
:1033250057007558417F4312277F8F3C153DE53C7B
:103335006004E53D70BD7BFF7A32795485416412A6
:1033450014527BFF7A32796E1214527BFF7A007920
:103355002E7F431233897FE87E031238447BFF7A40
:103365003279A81214527BFF7A0F79CC7F4312333E
:10337500897FE87E031238447BFF7A3279E21214A2
:0333850052AF3C08
:013388002222
:083389008F448B458A468947F9
:10339100E4F54DF54E754B32AB45AA46A947854E2E
:1033A10082854D83121765F54A054EE54E7002057B
:1033B1004DF582854D83121765F548054EE54E7032
:1033C10002054DE4854A62F561F560F55F756301BB
:1033D100756401F565756600756748AF4412264549
:1033E1008F4C154BE54C6004E54B70D7E4854A538F
:1033F100F552F551F550755401755501F55675574E
:1034010000755849AF4412277FE54AF46004E54B43
:043411007083AF4CC9
:013415002294
:10002E003A012A0428002900200021002200230082
:10003E00240025002600270028012802218F2803EE
:10004E002100280428052806280728082809280A38
:10005E00280B280C20802190280D20002100280E2E
:10006E0020812191280F2000219228102100281193
:10007E0021932812210028132814281520822816CF
:10008E0020002817281828192194281A2195281B92
:10009E002196281C2100281D2083281E2000281FA1
:1000AE0021972820210028212822282328242825AA
:1000BE002826282728282829282A2084282B20008B
:1000CE00282C282D282E282F28302831283220851C
:1000DE002833200028342835283628372198283808
:1000EE0021002839283A283B283C283D283E283F25
:1000FE002840284128422843284428452846284796
:10010E0028482849284A284B284C284D284E284F45
:10011E0028502851285228532854285528562857F5
:10012E0028582859285A285B285C285D285E285FA5
:10013E002860286128622199286321002864286597
:10014E002866286728682869286A286B286C286D15
:10015E00286E286F287028712872287328742875C5
:10016E002876287728782879287A287B287C287D75
:10017E00287E287F28802881288228832884288525
:10018E002886288728882889288A288B288C288DD5
:10019E00288E288F289028912086289220872893B1
:1001AE002000289428952896289728982899289AE8
:1001BE00289B289C289D289E289F219A28A02100B4
:1001CE0028A128A228A328A428A528A628A728A8BD
:1001DE0028A928AA28AB28AC28AD28AE28AF28B06D
:1001EE0028B128B228B328B428B528B628B728B81D
:1001FE0028B9208828BA200028BB208928BC2000D6
:10020E0028BD28BE28BF28C028C128C228C3219BCC
:10021E0028C4210028C528C628C728C828C928CA26
:10022E0028CB28CC28CD28CE28CF28D028D128D20C
:10023E0028D328D428D528D628D728D828D928DABC
:10024E0028DB28DC28DD28DE28DF28E028E1208ACC
:10025E0028E2208B28E3200028E428E528E628E77A
:10026E0028E828E928EA28EB28EC28ED28EE28EFE4
:10027E0028F028F128F228F328F428F528F628F794
:10028E0028F8208C28F92000219C28FA219D28FB93
:10029E00208D219E28FC208E219F28FD20002100EC
:1002AE0028FE28FF2A0128002201239524892507EC
:1002BE0026A42707280121C72200238026C4270C45
:1002CE0028022009211C220426AA270A280320001E
:1002DE002100220023A626A0270728042805200592
:1002EE00238426B427092806200022032300248114
:1002FE0025C026AB270A280721AE22002395248984
:10030E00250726A42700280821482201238026C479
:10031E00270C280920092104220426AA270A280AC4
:10032E0020002100220023A826A42707280B280C32
:10033E0021402220238026C4270C280D222426C6E5
:10034E00280E219E220026C8280F200921022214E1
:10035E0026AA270A2810200521002200238426B46D
:10036E0027092811200021012300240125C026ABD6
:10037E00270A281221C32395248925072620270022
:10038E002813200321C223832626270D281421B3E8
:0E039E0022082815200021C6220023952600E3
:1003AC0027082816210023002496250326AA270AAD
:1003BC002817204221B623802489250728182000DD
:1003CC0021002394260E2819200F238426B42709F4
:1003DC00281A2000239326A82703281B2628270049
:1003EC00281C21012300240125C026AB270A281D27
:1003FC0021C523952489250726202700281E2100A6
:10040C0023942600270A281F260E28202003217952
:10041C00220123832626270D282121322822200081
:10042C00210422002380240025FC26AA270A282345
:10043C00210023002500282421A3220D2380249EA3
:10044C00253B2825204221572201248925072826CF
:10045C0020002143220D240025382827210822982A
:10046C002395248925072624270028282042219318
:10047C002201238026AA270A28292003217E220470
:10048C0023832626270D282A200021B0220023951D
:10049C0026A02707282B21002300240C250426AA9C
:1004AC00270A282C21022380248625C326AB282D3D
:1004BC002042219722012489250726AA282E2000D4
:1004CC0021002200241F2504282F21B223952489E2
:1004DC0025072620270428302042218B2204238044
:1004EC0026AA270A2831200021B12200239526A014
:1004FC002707283220032175220423832626270D63
:10050C002833200521002200238426B4270928340F
:10051C00200021602300240125C026AB270A2835A2
:10052C00210822982395248925072624270028367C
:10053C0021BC2200283721A3220D2300240125C031
:10054C0026AB270A28382160220023802400253876
:10055C0026AA2839210622982395248925072624A2
:10056C002700283A21BE2200283B200521002384A5
:10057C0026B42709283C200021602300240125C033
:10058C0026AB270A283D21422201239524892507E1
:10059C0026242700283E210C229826A42707283F32
:1005AC0021082840216022002300240125C026AB0D
:1005BC00270A2841210C22982395248925072624D3
:1005CC0027002842200521002200238426B4270975
:1005DC002843200023802400251026AB270A28441A
:1005EC00212222012395248925072624270028452A
:1005FC002100220023002404251226AA270A2846BB
:10060C00200321D422052383248925072626270DA0
:10061C0028472000216022002300240125C026AB9E
:10062C00270A284821B32395248925072600270863
:10063C002849210023002409250026AA270A284A34
:10064C00210223802486253B284B204221DD2205D4
:10065C0024892507284C200021002200241F250076
:10066C00284D21B323952489250726202700284EC1
:10067C00210023002497250326AA270A284F20426D
:10068C0021E22205238024892507285020002110EF
:10069C0022002300248025CC26AB285121002240A7
:1006AC0023B42489250726AA27042852220023B024
:1006BC002692270928532114220123952600270866
:1006CC002854214823A4262A27002855210022003B
:1006DC0023002409250026AA270A2856210823804E
:1006EC002486253B285720422111220724892507DF
:1006FC002858200021002200241F250028592114ED
:10070C00220123952489250726202700285A211603
:0E071C0026022709285B2100220023002480EA
:10072A00254826AA270A285C23A0248925072614F7
:10073A002709285D2480255026A42704285E21162F
:10074A0022012395248925072700285F21042200F6
:10075A002300249C257826AA270A28602143220DF3
:10076A00240125C426AB286121032200241528620E
:10077A0021002400250026AA2863215E23952489C6
:10078A00250726102709286421032300241525C4D8
:10079A0026AB270A2865210023802400250626AADD
:1007AA002866248F25E326AB2867204221CD22071D
:1007BA002489250726AA2868200021602200230010
:1007CA00240125C026AB286921002380248F250314
:1007DA0026AA286A204221DD220724892507286BB8
:1007EA0020002143220D2300240125C026AB286CBA
:1007FA00210022002400250426AA286D2003217F37
:10080A0022012383248925072626270D286E2162A3
:10081A00286F200521002200238426B42709287086
:10082A00200021062395260027082871210123008C
:10083A002497253B26AA270A28722042210E22083D
:10084A0023802489250728732003213C220B238334
:10085A002626270D2874200021032200239526022C
:10086A002708287521272300248125C426AB270AB7
:10087A002876210023802409254826AA287721588A
:10088A00223423A324892507262A27002878210031
:10089A00220023A026002709287921072380240380
:1008AA00253926AA270A287A21042300241C253858
:1008BA00287B2107238024832539287C210323953B
:1008CA002489250726022708287D21272300248139
:1008DA0025C426AB270A287E21002380240925481F
:1008EA0026AA287F2158223423A324892507262AC9
:1008FA0027002880210622002300248125C0269370
:10090A0027012881210023802489254826AA270A2D
:10091A0028822002216622082300240025662883D3
:10092A002000210022002380241F2502288421067A
:10093A002489250726DC270C2885210023AA26AA34
:10094A00270A288623B62600270828872380248694
:10095A00253B26AA270A288821052489250726DC7B
:10096A00270C2889210023AA26AA270A288A23B61F
:10097A0026002708288B23802486253B26AA270AB7
:10098A00288C2042217B220824892507288D2000D3
:10099A0021002200230024012582288E210524819A
:1009AA0025C226AB288F200321932208238324897A
:1009BA0025072626270D289020002105220023003E
:1009CA00248125C026132701289121002380248908
:1009DA00254826AA270A28922002217E22082300D7
:1009EA002400256628932000210022002380241F4A
:1009FA002502289421052489250726DC270C289519
:100A0A00210023AA26AA270A289623B62600270801
:100A1A00289723802486253B26AA270A2898210579
:100A2A002489250726DC270C2899210023AA26AA2F
:100A3A00270A289A2380241F2502289B21012300A4
:100A4A00248125C226AB289C2003219322082383D4
:100A5A00248925072626270D289D20002104220007
:100A6A00239526122708289E216023C426AA270434
:100A7A00289F210023C02600270928A0204221CB35
:100A8A002208238026AA270A28A12070215422B8E6
:0E0A9A0023952612270828A2200221CC22082C
:100AA800238026AA270A28A3200321CA220F2383EA
:100AB8002626270D28A42000210022002300248CAC
:100AC800250C26AA270A28A521042482257828A6E9
:100AD80021002380248925482612270428A72003DB
:100AE80021DE220F238325072626270D28A820008C
:100AF800210122002300249C257826AA270A28A958
:100B0800210023802481254028AA200321CF220FF9
:100B18002383248925072626270D28AB2070210842
:100B280022B8239526A0270428AC200321D4220F1D
:100B380023832626270D28AD2127220B28AE2070D7
:100B4800216322B823952612270828AF2000210107
:100B580022002380248625CB26AB270A28B02042F2
:100B680021DD22082489250726AA28B1200021187A
:100B78002280239526A4270028B2200321D9220FFA
:100B880023832626270D28B32070210A22B823950F
:100B980026A0270028B4200221E02208238026AAC4
:100BA800270A28B52070210A22B8239526A02700F5
:100BB80028B621542602270828B7200021182280A9
:100BC80026A4270028B82100220023802480254855
:100BD80026AA270A28B92070215E22B823952489DD
:100BE80025072612270828BA200021002200238082
:100BF8002409254B26AA270A28BB2070215F22B882
:100C08002395248925072610270828BC20002100C1
:100C180022002300241C258326AB270A28BD200395
:100C2800213222092383248925072626270D28BE59
:100C380020002100220023002482258C26AB270ACD
:100C480028BF200321252209238324892507262656
:100C5800270D28C0204221BC238026AA270A28C1A4
:100C68002000210122002300240125C026AB28C230
:100C78002070210F22B823952489250726202700D4
:100C880028C3200321E3220F23832626270D28C407
:100C9800200521002200238426B4270928C5200026
:100CA800210323952614270828C621A623A4262A2B
:100CB800270528C7210023A02644270928C821186A
:100CC800226D2380249E257B26AA270A28C9204234
:100CD8002113220B2489250728CA200021AE2200CF
:100CE80023952624270028CB21002203238024874C
:100CF800257B26AA270A28CC20422116220B2489E4
:100D0800250728CD200021AE220023952624270080
:100D180028CE20052100238426B4270928CF2003C4
:100D2800210D220B23832626270D28D02000210001
:100D38002200230024802602270028D123802409AA
:100D48002548261E28D221582234233324802507FB
:100D5800262A28D32100220023002680271028D401
:100D680021102363262A270028D52100236026A8DE
:100D7800271228D621AF224C230026C8270C28D7B3
:100D8800210022002680270528D823802486253B99
:100D9800261E270028D92042211C220E2300248049
:100DA800250728DA20002135222926C4270C28DB2C
:100DB8002002211D220E261E270028DC2000217F6C
:100DC800223426C4270C28DD210022002390249FEA
:100DD80025042610270A28DE2300248425002680DF
:100DE800271028DF2106236324802507262A2700C9
:100DF80028E021002380248926AA270A28E1200543
:100E0800238426B4270928E22070216122B823957B
:0E0E18002612270828E3200021012200238053
:100E2600248625C326AB270A28E4204221CE220F9A
:100E36002489250726AA28E52070215022B8239563
:100E46002612270828E6200521002200238426B43E
:100E5600270928E72070216422B82395261227083F
:100E660028E82000210122002380248625C326AB02
:100E7600270A28E9204221D3220F2489250726AAFA
:100E860028EA2070215122B823952612270828EB3C
:100E9600200521002200238426B4270928EC20708F
:100EA600216522B823952612270828ED2000210166
:100EB60022002380248625C326AB270A28EE20425B
:100EC60021D8220F2489250726AA28EF207021522F
:100ED60022B823952612270828F020052100220093
:100EE600238426B4270928F12070216122B823958E
:100EF6002602270828F220002101220023802486CA
:100F060025C326AB270A28F3204221DD220F248998
:100F1600250726AA28F42070215022B823952602F8
:100F2600270828F5200521002200238426B4270956
:100F360028F6200021012380248625CB26AB270A0C
:100F460028F7204221E1220F2489250726AA28F81E
:100F56002000210222002300248125C426AB28F983
:100F6600210023802489254826AA28FA20052384DF
:100F7600250726B4270928FB2070214E22B8239581
:100F86002610270828FC2000210022002380248622
:100F960025C326AB270A28FD204221E7220F2489F4
:100FA600250726AA28FE200021BB220023952620FD
:100FB600270028FF20052100238426B427092A08B4
:100FC6001001FFFFFFFF3A00643A65BB083A09BB10
:100FD60050105267517705A1180454015521070096
:100FE600060C0B03501051005204610F64556555F1
:080FF60005A11804FFFFFFFF35
:102CEA008F3F8E3E8D3D8C3C12392A8B1D8A1E8960
:102CFA001FAF3FAE3EAD3DAC3C789C121A06AF3FCB
:102D0A00AE3EAD3DAC3C12352778A0121A06788E3D
:102D1A001219ED78A01219F9EB2FFFEA3EFEE93DF0
:102D2A00FDE83CFCAB1DAA1EA91F90000412181B4B
:102D3A00F56685F065756701756804756900123670
:102D4A00DE788E1219EDEF2401FFE43EFEE43DFD2C
:102D5A00E43CFC788E121A067894121A1E000000BF
:102D6A0000788E1219ED78A01219F9EB2FFFEA3EBE
:102D7A00FEE93DFDE83CFCAB1DAA1EA91F9000041C
:102D8A0012181BF56685F065756701756806756921
:102D9A00001236DE788E1219EDEF2401FFE43EFEB2
:102DAA00E43DFDE43CFC788E121A067898121A1E4D
:102DBA0000000000E47892F60876017F0C1237E5ED
:0E2DCA007893E67003C2CA2243870180F32289
:03002B000228A305
:1028A300C0E0C0F0C083C082C0D075D000C000C0FB
:0D28B30001C002C003C004C005C006C0077C
:1028C000C2CF7892E660131460030229A930920304
:1028D0000229A9789276000229A930920302296D73
:1028E000308D0302296DD2937896E6FE08E6240027
:1028F000F58274043EF583E0FF7B007A00792212B2
:102900003733C29378941219EDEF2401FFE43EFEB1
:10291000E43DFDE43CFC7894121A06E47FFF7E015E
:10292000FDFC78941219F9D312198640ADE47FFFAB
:102930007E01FDFC78981219F9D31219864027AB55
:102940001DAA1EA91F12174CFFE4FCFDFE788E1273
:1029500019F9C31219867007789276020228DA787C
:102960009276030228DA789276040228DA309239D5
:102970007892E670347FFF7E01FDFC78981219F999
:10298000D31219864023AB1DAA1EA91F12174CFF94
:10299000E4FCFDFE788E1219F9C3121986700678D0
:0929A0009276028004789276031D
:1029A900D007D006D005D004D003D002D001D00082
:0B29B900D0D0D082D083D0F0D0E0322C
:03000000023916AC
:0C391600787FE4F6D8FD7581A4021DD96D
:10174C00BB010689828A83E0225002E722BBFE029B
:09175C00E32289828A83E49322CE
:10176500BB010CE58229F582E5833AF583E0225039
:1017750006E92582F8E622BBFE06E92582F8E22283
:0D178500E58229F582E5833AF583E493229D
:10179200BB010689828A83F0225002F722BBFE0136
:0217A200F32230
:1017A400F8BB010DE58229F582E5833AF583E8F07B
:1017B400225006E92582C8F622BBFE05E92582C827
:0217C400F2220F
:1017C600BC000BBE0029EF8DF084FFADF022E4CC07
:1017D600F875F008EF2FFFEE33FEEC33FCEE9DECD0
:1017E600984005FCEE9DFE0FD5F0E9E4CEFD22ED16
:1017F600F8F5F0EE8420D21CFEADF075F008EF2F60
:10180600FFED33FD4007985006D5F0F222C398FD50
:051816000FD5F0EA22ED
:10181B00BB0110E58229F582E5833AF583E0F5F00B
:10182B00A3E0225009E92582F886F008E622BBFEE8
:10183B000AE92582F8E2F5F008E222E5832AF5832E
:08184B00E993F5F0A3E99322F3
:10185300E88FF0A4CC8BF0A42CFCE98EF0A42CFC34
:101863008AF0EDA42CFCEA8EF0A4CDA8F08BF0A4B2
:101873002DCC3825F0FDE98FF0A42CCD35F0FCEB11
:101883008EF0A4FEA9F0EB8FF0A4CFC5F02ECD39D6
:0F189300FEE43CFCEAA42DCE35F0FDE43CFC2243
:1018A20075F008758200EF2FFFEE33FECD33CDCCFD
:1018B20033CCC58233C5829BED9AEC99E582984080
:1018C2000CF582EE9BFEED9AFDEC99FC0FD5F0D65D
:1018D200E4CEFBE4CDFAE4CCF9A88222B800C1B987
:1018E2000059BA002DEC8BF084CFCECDFCE5F0CBC5
:1018F200F97818EF2FFFEE33FEED33FDEC33FCEBFE
:1019020033FB10D703994004EB99FB0FD8E5E4F9B8
:10191200FA227818EF2FFFEE33FEED33FDEC33FCA5
:10192200C933C910D7059BE99A4007EC9BFCE99A99
:10193200F90FD8E0E4C9FAE4CCFB2275F010EF2FDE
:10194200FFEE33FEED33FDCC33CCC833C810D707DE
:101952009BEC9AE899400AED9BFDEC9AFCE899F819
:0E1962000FD5F0DAE4CDFBE4CCFAE4C8F922AC
:10197000EB9FF5F0EA9E42F0E99D42F0EC6480C8EE
:0619800064809845F0228E
:10198600EB9FF5F0EA9E42F0E99D42F0E89C45F0B7
:01199600222E
:10199700E8600FECC313FCED13FDEE13FEEF13FF2E
:0319A700D8F12252
:1019AA00E8600FEFC333FFEE33FEED33FDEC33FC9B
:0319BA00D8F1223F
:1019BD00BB010DE58229F582E5833AF583021A45CF
:1019CD005007E92582F80219EDBBFE07E92582F8DB
:1019DD00021A51E58229F582E5833AF583021A5DF3
:0C19ED00E6FC08E6FD08E6FE08E6FF2226
:0D19F900E6FB08E6F908E6FA08E6CBF8225E
:0C1A0600ECF608EDF608EEF608EFF6220C
:0C1A1200ECF0A3EDF0A3EEF0A3EFF02247
:101A1E00D083D082E493F608740193F6087402938F
:091A2E00F608740393F6740473C6
:10000300EFB40A07740D12000E740A309811A89900
:10001300B8130CC2983098FDA899C298B811F6305D
:0700230099FDC299F5992235
:1013F000E5702464F8E605702278613007027864AD
:10140000E475F001121A6D02174C2000EB7F2ED20A
:10141000008018EF540F2490D43440D4FF30040BD4
:10142000EF24BFB41A0050032461FFE57160021578
:10143000710574E5747002057330070D7861E47509
:10144000F001121A6DEF0217920200037403D20723
:101450008003E4C207F5708B618A628963E4F571E9
:10146000F573F574E57160077F2012142B80F57514
:1014700072FFC201C200C202C203C205C206C20894
:101480001213F9FF700D3007057F0012143CAF7482
:10149000AE7322B4255FC2D5C2041213F9FF24D063
:1014A000B40A00501A75F00A787130D50508B6FFF5
:1014B0000106C6A426F620D5047002D20380D924E2
:1014C000CFB41A00EF5004C2E5D20402163CD20198
:1014D00080C6D20080C0D20280BCD2D580BAD205EC
:1014E00080B47F2012142B2002077401B5710040D4
:1014F000F11213F0FF12142B021464D208D20680EA
:10150000951213F0FB1213F0FA1213F0F94A4B7014
:1015100006790D7A177BFF20022EE571602A7E0086
:101520008E8275830012176560060EEE657270F08C
:10153000C2D5EBC0E0EAC0E0E9C0E0EE121683D00D
:10154000E0F9D0E0FAD0E0FB12174CFF60AAEBC044
:10155000E0EAC0E0E9C0E012142BD0E02401F9D0A9
:10156000E03400FAD0E0FBE5720460DCD572D9808B
:10157000877BFF7A16797FD202809C79108002796E
:1015800008C206C2088008D2D5790A8004790AC246
:10159000D5E572047002F572E4FAFDFEFF1213F055
:1015A000FC7B082001131213F0FD7B1030000A129F
:1015B00013F0FE1213F0FF7B20EC3382D592D5504E
:1015C00013C3E43000069FFFE49EFEE42001039D68
:1015D000FDE49CFCE4CBF8C201EC700CCFCECDCC8A
:1015E000E824F8F870F38017C3EF33FFEE33FEED15
:1015F00033FDEC33FCEB33FB994002FB0FD8E9EBF6
:10160000300105F8D0E0C448B201C0E00AEC4D4E0C
:101610004F78207B0070C2EAB5720040BCC0E01277
:101620001685D0F0D0E0200104C4C0E0C4B201C0EF
:10163000F0121414D0F0D5F0EB021464121A7D15D8
:101640000153157B5814D24C14CE42157F4F158789
:101650004415874914E743158D5515714615714595
:10166000157147172D5014D62D14DA2E14FD2B1496
:10167000DE2314FB20171B2A149648000014F53FA4
:101680003F3F00790AA2D5200314300509B91002A2
:101690000404B9080104A2D5200602500104200266
:0516A000689202B57123
:1016A500005034C0E07F203003197F30A20272065B
:1016B5007205500F1216DCC202C206C205C2087FAF
:1016C50030800F300503E9C0E012142B300503D03C
:1016D500E0F9D0E0B571CC3005177F30B9100C12A8
:1016E500142B7F583004077F788003B90803121440
:1016F5002B3002057F2D02142B7F202008F87F2B2D
:101705002006F322920280CF286E756C6C29002D7D
:1017150050434958D2011213F03001F8C2017871D3
:1017250030D50108F60214961213F02403B405000F
:101735004001E49017149312141C743A12141CD22D
:071745000375710402157B1E
:102DD8008B4D8A4E894FAB4DAA4EA94F12174CFF07
:102DE8001238F4500D7401254FF54FE4354EF54E69
:102DF80080E4D200AB4DAA4EA94F12174CFF642BAA
:102E08006004EFB42D1BAB4D054FE54FAA4E700281
:102E1800054E14F912174C642D6003D38001C39238
:102E280000E4F553F552F551F550AB4DAA4EA94FB4
:102E380012174CFF123907505CE47F0AFEFDFCAB09
:102E480053AA52A951A850121853C8ECC8EDC0E0B3
:102E5800EEC0E0EFC0E0AB4DAA4EA94F12174CFFF1
:102E68003395E0FEEF24D0FFEE34FFFEE4FCFDD006
:102E7800E0FBD0E0FAD0E0F9EB2FF553EA3EF5524B
:102E8800ED39F551EC38F5507401254FF54FE4351F
:102E98004EF54E809530000AAF53AE52AD51AC504E
:0E2EA800800BAF53AE52AD51AC50121A372210
:0E1A3700C3E49FFFE49EFEE49DFDE49CFC22C0
:0C1A4500E0FCA3E0FDA3E0FEA3E0FF2214
:0C1A5100E2FC08E2FD08E2FE08E2FF22D1
:101A5D00E493FC740193FD740293FE740393FF22CF
:101A6D00FAE6FB0808E6F925F0F618E6CA3AF6227A
:101A7D00D083D082F8E4937012740193700DA3A3F8
:101A8D0093F8740193F5828883E47374029368600C
:061A9D00EFA3A3A380DF0C
:0F390700EFC394304007EF943A50028001C3227F
:1038F400EFC394094005EF940E4003BF2003D38027
:0339040001C322DA
:00000001FF
